:100000000C9462000C948A000C948A000C948A0070
:100010000C948A000C948A000C948A000C948A0038
:100020000C948A000C948A000C948A000C948A0028
:100030000C948A000C948A000C948A000C948A0018
:100040000C9495030C948A000C9405040C94DF0323
:100050000C948A000C948A000C948A000C948A00F8
:100060000C948A000C948A000000000024002700F1
:100070002A0000000000250028002B0000000000DE
:1000800023002600290004040404040404040202DA
:100090000202020203030303030301020408102007
:1000A0004080010204081020010204081020000012
:1000B0000008000201000003040700000000000027
:1000C0000000680511241FBECFEFD8E0DEBFCDBF12
:1000D00011E0A0E0B1E0EEE7FBE002C005900D9278
:1000E000A033B107D9F721E0A0E3B1E001C01D9230
:1000F000AA3DB207E1F710E0C2E6D0E004C02197C4
:10010000FE010E94B705C136D107C9F70E94370426
:100110000C94BD050C940000833081F028F48130EC
:1001200099F08230A9F008958730A9F08830C9F09D
:100130008430B1F4809180008F7D03C08091800075
:100140008F7780938000089584B58F7784BD08955C
:1001500084B58F7DFBCF8091B0008F778093B00006
:1001600008958091B0008F7DF9CFCF93DF93282F32
:1001700030E0F901E255FF4F8491F901E656FF4F57
:10018000D491F901EA57FF4FC491CC23A1F081111A
:100190000E948C00EC2FF0E0EE0FFF1FE458FF4FA1
:1001A000A591B491EC91ED2381E090E009F480E019
:1001B000DF91CF91089580E090E0FACF1F93CF9325
:1001C000DF93282F30E0F901E255FF4F8491F901C8
:1001D000E656FF4FD491F901EA57FF4FC491CC2363
:1001E000A9F0162F81110E948C00EC2FF0E0EE0F89
:1001F000FF1FEE58FF4FA591B4918FB7F894EC9183
:10020000111108C0D095DE23DC938FBFDF91CF9111
:100210001F910895DE2BF8CFCF93DF9390E0FC0180
:10022000E656FF4F24918A579F4FFC018491882303
:10023000D1F090E0880F991FFC01E859FF4FA5917C
:10024000B491FC01EE58FF4FC591D49161110EC0DD
:100250009FB7F8948C91E22FE0958E238C932881A0
:10026000E223E8839FBFDF91CF9108958FB7F89481
:10027000EC91E22BEC938FBFF6CF3FB7F8948091CF
:10028000390190913A01A0913B01B0913C0126B512
:10029000A89B05C02F3F19F00196A11DB11D3FBFBE
:1002A000BA2FA92F982F8827BC01CD01620F711D8D
:1002B000811D911D42E0660F771F881F991F4A9587
:1002C000D1F708958F929F92AF92BF92CF92DF9213
:1002D000EF92FF924B015C010E943D016B017C019A
:1002E0000E943D016C197D098E099F09683E73408B
:1002F00081059105A8F321E0821A9108A108B108AF
:1003000088EEC80E83E0D81EE11CF11C8114910414
:10031000A104B10429F7FF90EF90DF90CF90BF9038
:10032000AF909F908F900895AF92BF92CF92DF923F
:10033000EF92FF920F931F93CF93DF936C017B019A
:100340008B01040F151FEB015E01AE18BF08C0172B
:10035000D10759F06991D601ED91FC910190F0819E
:10036000E02DC6010995892B79F7C501DF91CF9161
:100370001F910F91FF90EF90DF90CF90BF90AF90C3
:100380000895FC01538D448D252F30E0842F90E09B
:10039000821B930B541710F0CF9608950197089580
:1003A000FC01918D828D981761F0A28DAE0FBF2F49
:1003B000B11D5D968C91928D9F5F9F73928F90E09F
:1003C00008958FEF9FEF0895FC01918D828D98170E
:1003D00031F0828DE80FF11D858D90E008958FEF4B
:1003E0009FEF0895FC01918D228D892F90E0805C14
:1003F0009F4F821B91098F73992708958DE391E098
:100400000E94F20121E0892B09F420E0822F089557
:1004100080E090E0892B29F00E94FE0181110C946C
:1004200000000895FC01A48DA80FB92FB11DA35A97
:10043000BF4F2C91848D90E001968F739927848F04
:10044000A689B7892C93A089B1898C918370806427
:100450008C93938D848D981306C00288F389E02DC8
:1004600080818F7D80830895EF92FF920F931F9379
:10047000CF93DF93EC0181E0888F9B8D8C8D981357
:100480001AC0E889F989808185FF15C09FB7F89463
:10049000EE89FF896083E889F989808183708064AF
:1004A00080839FBF81E090E0DF91CF911F910F91FA
:1004B000FF90EF900895F62E0B8D10E00F5F1F4F09
:1004C0000F731127E02E8C8D8E110CC00FB607FC18
:1004D000FACFE889F989808185FFF5CFCE010E94A6
:1004E0001202F1CFEB8DEC0FFD2FF11DE35AFF4F00
:1004F000F0829FB7F8940B8FEA89FB898081806234
:10050000CFCFCF93DF93EC01888D8823B9F0AA89F0
:10051000BB89E889F9898C9185FD03C0808186FDBE
:100520000DC00FB607FCF7CF8C9185FFF2CF80810D
:1005300085FFEDCFCE010E941202E9CFDF91CF916E
:100540000895FC0101900020E9F73197AF01481BA5
:10055000590BBC018DE391E00C9494018F929F9212
:10056000AF92BF920F931F93CF93DF93CDB7DEB7B8
:10057000A1970FB6F894DEBF0FBECDBF19A24230CF
:1005800008F44AE08E010F5D1F4F842E912CB12C90
:10059000A12CA50194010E949505E62FB901CA017D
:1005A000EA30F4F4E05DD801EE938D01232B242B87
:1005B000252B79F790E080E0109719F0CD010E948B
:1005C000A102A1960FB6F894DEBF0FBECDBFDF919A
:1005D000CF911F910F91BF90AF909F908F900895F2
:1005E000E95CE1CFCF92DF92EF92FF92CF93DF935E
:1005F0006B017C016DE28DE391E00E943402EC011D
:1006000066277727CB016C197D098E099F094AE07F
:100610000E94AE028C0F9D1FDF91CF91FF90EF9053
:10062000DF90CF900895CF93DF930E94A102EC0159
:1006300082E191E00E94A1028C0F9D1FDF91CF917A
:1006400008958130910529F561E086E00E94DE0081
:1006500060E087E00E94DE0060E085E00E94DE004E
:1006600085E191E00E94130361E088E00E94DE00D2
:1006700069E170E080E090E00E94620160E088E063
:100680000E94DE0069E170E080E090E00E9462017B
:10069000E7CF029729F561E086E00E94DE0061E085
:1006A00087E00E94DE0060E085E00E94DE008EE1CF
:1006B00091E00E94130361E088E00E94DE0062E3A3
:1006C00070E080E090E00E94620160E088E00E94BB
:1006D000DE0062E370E080E090E00E946201E7CF1C
:1006E00060E086E00E94DE0060E087E00E94DE00BD
:1006F00060E085E00E94DE0087E291E00E94130343
:1007000061E088E00E94DE0064E670E080E090E056
:100710000E94620160E088E00E94DE0064E670E012
:1007200080E090E00E946201E7CF1F920F920FB627
:100730000F9211242F933F938F939F93AF93BF9367
:100740008091350190913601A0913701B091380127
:100750003091340123E0230F2D3758F50196A11D68
:10076000B11D209334018093350190933601A093FD
:100770003701B09338018091390190913A01A091ED
:100780003B01B0913C010196A11DB11D809339013F
:1007900090933A01A0933B01B0933C01BF91AF917C
:1007A0009F918F913F912F910F900FBE0F901F90AF
:1007B000189526E8230F0296A11DB11DD2CF1F92D6
:1007C0000F920FB60F9211242F933F934F935F9385
:1007D0006F937F938F939F93AF93BF93EF93FF9309
:1007E0008DE391E00E941202FF91EF91BF91AF91D2
:1007F0009F918F917F916F915F914F913F912F9139
:100800000F900FBE0F901F9018951F920F920FB66A
:100810000F9211242F938F939F93EF93FF93E09167
:100820004D01F0914E018081E0915301F09154010E
:1008300082FD1BC09081809156018F5F8F73209144
:100840005701821741F0E0915601F0E0E35CFE4F62
:10085000958F80935601FF91EF919F918F912F91EA
:100860000F900FBE0F901F9018958081F4CF789451
:1008700084B5826084BD84B5816084BD85B58260A5
:1008800085BD85B5816085BD80916E008160809356
:100890006E001092810080918100826080938100BF
:1008A00080918100816080938100809180008160CF
:1008B000809380008091B10084608093B10080912A
:1008C000B00081608093B00080917A008460809352
:1008D0007A0080917A00826080937A0080917A0019
:1008E000816080937A0080917A00806880937A009A
:1008F0001092C100E0914D01F0914E0182E08083A1
:10090000E0914901F0914A011082E0914B01F09190
:100910004C018FEC808310925501E0915101F091D0
:10092000520186E08083E0914F01F0915001808177
:1009300080618083E0914F01F09150018081886057
:100940008083E0914F01F091500180818068808325
:10095000E0914F01F091500180818F7D808360E0B4
:1009600082E00E940C0160E083E00E940C0160E0E4
:1009700084E00E940C0161E085E00E940C0161E0CE
:1009800086E00E940C0161E087E00E940C0161E0BA
:1009900088E00E940C0160E085E00E94DE0060E0DB
:1009A00086E00E94DE0060E087E00E94DE0060E0FA
:1009B00088E00E94DE00C0E0D0E082E00E94B50046
:1009C000892B79F468EE73E080E090E00E94620188
:1009D00061E087E00E94DE0060E085E00E94DE00CA
:1009E000ECCF61E085E00E94DE0060E087E00E94DD
:1009F000DE0064E670E080E090E00E94620183E047
:100A00000E94B5009093330180933201BC01990F8D
:100A1000880B990B97FF2EC00E94F20284E00E947F
:100A2000B5009093310180933001BC01990F880B80
:100A3000990B97FF23C00E94F20282E191E00E948D
:100A4000A10280913201909133010197F1F468EE97
:100A500073E080E090E00E94620184E00E94B500B3
:100A60009093310180933001019761F483E090E02D
:100A70000E9421034AE00E94AE02D0CF4AE00E94C9
:100A8000AE02DBCF81E090E0F3CF80913001909116
:100A90003101019791F468EE73E080E090E00E94EC
:100AA000620183E00E94B50090933301809332018C
:100AB0000197E1F282E090E0DBCF209709F47DCF4F
:100AC0000E94FE01882309F478CF0E94000075CFB0
:100AD000EDE3F1E01382128288EE93E0A0E0B0E053
:100AE00084839583A683B78384E091E09183808398
:100AF00085EC90E09587848784EC90E097878687E3
:100B000080EC90E0918B808B81EC90E0938B828BDA
:100B100082EC90E0958B848B86EC90E0978B868BB3
:100B2000118E128E138E148E0895A1E21A2EAA1B16
:100B3000BB1BFD010DC0AA1FBB1FEE1FFF1FA2178D
:100B4000B307E407F50720F0A21BB30BE40BF50B8A
:100B5000661F771F881F991F1A9469F76095709513
:100B6000809590959B01AC01BD01CF010895EE0FDA
:0E0B7000FF1F0590F491E02D0994F894FFCF3B
:100B7E000000000034029401C1018102F201D00193
:100B8E00E4010D0A007369676E616C2031007369B0
:100B9E00676E616C2032007369676E616C20330082
:00000001FF
